:1000000088140020350300000000000000000000FC
:1000100000000000000000000000000000000000E0
:1000200000000000000000000000000000000000D0
:1000300000000000000000000000000000000000C0
:1000400000000000000000000000000000000000B0
:1000500000000000000000000000000000000000A0
:100060000000000000000000000000000000000090
:100070000000000000000000000000000000000080
:100080000000000000000000000000000000000070
:100090000000000000000000000000000000000060
:1000A0000000000000000000000000000000000050
:1000B0000000000000000000000000000000000040
:1000C0000000000000000000000000000000000030
:1000D0000000000000000000000000000000000020
:1000E0000000000000000000000000000000000010
:1000F0000000000000000000000000000000000000
:1001000000000000000000000000000000000000EF
:1001100000000000000000000000000000000000DF
:1001200000000000000000000000000000000000CF
:1001300000000000000000000000000000000000BF
:1001400000000000000000000000000000000000AF
:10015000000000000000000000000000000000009F
:10016000000000000000000000000000000000008F
:10017000000000000000000000000000000000007F
:10018000000000000000000000000000000000006F
:10019000000000000000000000000000000000005F
:1001A000000000000000000000000000000000004F
:1001B000000000000000000000000000000000003F
:1001C000000000000000000000000000000000002F
:1001D000000000000000000000000000000000001F
:1001E000000000000000000000000000000000000F
:1001F00000000000000000000000000000000000FF
:1002000010B5054C237833B9044B13B10448AFF350
:1002100000800123237010BD0000002000000000BA
:10022000C406000008B5034B1BB103490348AFF3F4
:10023000008008BD0000000004000020C40600008B
:10024000A3F5803A704700BF174B002B08BF134B34
:100250009D46FFF7F5FF00218B460F461348144AD1
:10026000121A00F0BBF80E4B002B00D098470D4B34
:10027000002B00D098470020002104000D000D48FD
:10028000002802D00C4800F067F900F083F8200045
:10029000290000F013F800F06DF800BF000008001E
:1002A000000000000000000000000000000000202E
:1002B00044000020590500006505000038B5054CD4
:1002C00004F10C0514F8010B00F020F8AC42F9D150
:1002D00038BD00BF6806000000B5074A07CA85B0F0
:1002E00001AB83E807001946012000F033F8034B07
:1002F000186005B05DF804FB740600001C000020C7
:100300000149022000F026B81C00002000B5084B6F
:1003100087B01B680190039301AA012303A905205C
:10032000CDE9042300F016F8019807B05DF804FB4E
:100330001C0000200B4885460B490C4A521A03DD6D
:1003400000208850043AFCDAFFF7C6FFFFF7B6FF3B
:1003500000F010F8ABBE7047FFF7D2FF1820044939
:10036000ABBEFBE788140020000000204000002006
:100370002600020008B50021044600F08BF8044B6B
:100380001868C36B03B198472046FFF7E5FF00BF2D
:100390008406000070B50D4E0D4D761BB61006D0CC
:1003A000002455F8043B01349847A642F9D1094E80
:1003B000094D761B00F07AF9B61006D0002455F8E6
:1003C000043B01349847A642F9D170BD00000000FB
:1003D000000000000000000000000000830730B5AE
:1003E00048D0541E002A3FD0CAB2034601E0013C67
:1003F0003AD303F8012B9D07F9D1032C2DD9CDB2A7
:1004000045EA05250F2C45EA054536D9A4F1100229
:1004100022F00F0C03F1200EE6444FEA121C03F108
:10042000100242E9045542E9025510327245F8D1F2
:100430000CF1010214F00C0F03EB021204F00F0C8C
:1004400013D0ACF1040323F003030433134442F844
:10045000045B9342FBD10CF003042CB1CAB21C44E0
:1004600003F8012B9C42FBD130BD64461346002C9F
:10047000F4D1F9E703461446BFE71A46A446E0E77D
:10048000024B13B1024800F067B87047000000004B
:10049000650500002DE9F04F2D4B83B083461868A9
:1004A000CDF804B00F4600F07DF82A4BD3F8008059
:1004B000D8F848619EB14FF001094FF0000A746806
:1004C000651E0CD4013406EB84047FB1D4F80031EE
:1004D000BB420BD0013D6B1CA4F10404F5D11C4BB5
:1004E000186803B0BDE8F04F00F064B87368226884
:1004F000013BAB420CBF7560C4F800A0002AE9D0F4
:10050000D6F88801D6F804B009FA05F101420BD1FA
:10051000904772685A4512D1D8F84831B342D9D0C1
:100520001E46002ECBD1DAE7D6F88C0101420BD162
:10053000D4F880100198904772685A45ECD0D8F8EA
:100540004861002EBBD1CAE7D4F880009047E0E7AD
:100550007804002084060000002301461A4618464D
:1005600000F02AB838B5084B084D5B1B9C1007D02B
:10057000043B1D44013C55F804399847002CF9D13F
:10058000BDE8384000F098B800000000000000000E
:10059000704700BF704700BF704700BF704700BF83
:1005A000704700BF704700BF0120704701207047AF
:1005B000704700BF704700BF2DE9F047DFF87CA00F
:1005C0000646DAF8000098460F469146FFF7EAFF24
:1005D0001B4B1B68D3F8484124B365681F2D26DCEC
:1005E0005EB96B1C0235DAF80000636044F82570D0
:1005F000FFF7E0FF0020BDE8F08704EB8501012351
:10060000C1F88890D4F88821AB401A43022EC4F870
:100610008821C1F80881E4D1D4F88C211343C4F8AF
:100620008C31DEE703F5A674C3F84841D5E7DAF864
:100630000000FFF7BFFF4FF0FF30DCE77804002039
:10064000840600003B3E0B3E103E253E333E033EFB
:10065000063E143E0E3E0D3E243E123E273E023E16
:10066000183E093E0A3E000048656C6C6F20576FCB
:10067000726C6400800600000400000003000000AB
:100680003A747400500000203B3E0B3E103E253E65
:10069000333E033E063E143E0E3E0D3E243E123EC9
:0C06A000273E023E183E093E0A3E0000C4
:0C06AC00F8B500BFF8BC08BC9E467047C3
:0C06B800F8B500BFF8BC08BC9E467047B7
:0406C4000000000032
:0806C80078FBFF7F0100000038
:1006D0000000000050000020000000003C0300204B
:1006E000A40300200C040020000000000000000013
:1006F00000000000000000000000000000000000FA
:1007000000000000000000000000000000000000E9
:1007100000000000000000000000000000000000D9
:1007200000000000000000000000000000000000C9
:1007300000000000000000000000000000000000B9
:1007400000000000000000000000000000000000A9
:100750000000000000000000000000000000000099
:100760000000000000000000000000000000000089
:100770000000000000000000000000000000000079
:1007800001000000000000000E33CDAB34126DE616
:10079000ECDE05000B00000000000000000000007F
:1007A0000000000000000000000000000000000049
:1007B0000000000000000000000000000000000039
:1007C0000000000000000000000000000000000029
:1007D0000000000000000000000000000000000019
:040B000028000020A9
:040B040025020000C6
:040B080001020000E6
:040B0C008104000060
:100B1000FFFFFFFFFFFFFFFFFFFFFFFFFFFFFFFFE5
:100B2000FFFFFFFFFFFFFFFFFFFFFFFFFFFFFFFFD5
:100B3000FFFFFFFFFFFFFFFFFFFFFFFFFFFFFFFFC5
:100B4000FFFFFFFFFFFFFFFFFFFFFFFFFFFFFFFFB5
:0400000300000335C1
:00000001FF
